:020000040000FA
:0400000026EF00F0F7
:08000800056A046EFF0E0426D8
:10001000D8A005260000D8A01200030E016EE30E42
:1000200002D8F4D7016AF40F006E011EFE0ED8A0AC
:1000300003D00026D8B0FDD700260000013EF9D736
:10004000000000B000D000B000D01200188CCFD05B
:10005000080E1A6E19BE8B8819AE8B988B869496F3
:10006000030EE82EFED78B969496030EE82EFED74D
:10007000D89019361A061A66EDD71200080E196EB6
:100080001A6A9488D8901A361A8082A81A908B8699
:100090009496030EE82EFED78B969496030EE82EC8
:1000A000FED719061966EED7949812008B8694969F
:1000B0008B98949812008B88030EE82EFED78B86BF
:1000C000030EE82EFED78B98030EE82EFED78B96F4
:1000D000030EE82EFED712008B98030EE82EFED7F3
:1000E0008B86030EE82EFED78B88030EE82EFED7F4
:1000F0001200E1D719B08B8819A08B988B86949643
:10010000030EE82EFED78B969496030EE82EFED7AC
:100110001200B4DF1AC01BF012001BC019F098DFE8
:1001200094888B888B86030EE82EFED7248082A8C5
:1001300024908B9694981200226A236A500E1D24F4
:10014000206E000E216A2122D89020341E6EB3DF6B
:100150001EC01BF0E2DF1CC01BF0DFDFCADF1E8009
:100160001EC01BF0DADFD5DF1BC01FF01980C2DF15
:10017000B3D7226A236A500E1D24206E000E216A16
:100180002122D89020341F6E96DF1FC01BF0C5DFE0
:100190001CC01BF0C2DF1EC01BF0BFDF9DD786D77F
:1001A000C0880F0148694969C098C26A93929396C2
:1001B000939A939892869284928292809482948465
:1001C000000112009486948812008A9293928A9A6F
:1001D000939A8A8693968A88939812008A96939621
:1001E0008A9893988A8293928A8A939A1200740EBC
:1001F000D36E9B6AD5DFE6DFD2DF1D6A460E1C6E2A
:100200009BDF4D0E1F5C0EE01D6A460E1C6E4D0EF0
:100210001E6EAFDF1D6A0A0E1C6E010E1E6EA9DF78
:100220007B6A7A6A1D6A0A0E1C6E86DF1F2C03D059
:100230002580CBDF02D02590D1DF80B602D082A20C
:1002400018D0320EE1DE80B602D082A212D025B0E4
:1002500009D02580BADF1D6A0A0E1C6E010E1E6EC3
:1002600088DF07D02590BADF1D6A0A0E1C6E1E6A51
:1002700080DF80B601D082B2FCD780B402D082A4E5
:1002800008D0320EC1DE80B402D082A402D09DDF3D
:10029000FAD725A002D099DF01D0A0DFCED7030086
:0202A000FED787
:087FF800A0F418F7FFF9DFF116
:00000001FF
